:100000000EC015C014C013C012C011C010C00FC064
:100010000EC00DC00CC00BC00AC009C008C011241E
:100020001FBECFE5D2E0DEBFCDBF02D034C0E8CFE7
:1000300083E187BB83EA8ABD81E083BF80BF80E61E
:100040008CBD4AEA50E025E530E081E090E070E0C8
:1000500060E002C0872F962F2F5F3F4F2F3F310563
:1000600019F014F0272F362F4F5F5F4F4F3F510588
:1000700019F014F0472F562F89BD28BD4BBDE3EC76
:10008000F9E03197F1F700C0000001968F3F91052C
:0A00900009F004F7E1CFF894FFCF68
:00000001FF
